:100000000C9462000C94DE020C94B7020C948A00EB
:100010000C948A000C948A000C948A000C948A0038
:100020000C948A000C948A000C948A000C948A0028
:100030000C948A000C948A000C948A000C948A0018
:100040000C946D020C948A000C942B030C94050301
:100050000C948A000C948A000C948A000C948A00F8
:100060000C948A000C948A000000000023002600F3
:10007000290000000008000201000003040700003E
:1000800000000000000000000000250028002B00F8
:1000900000000000240027002A00040404040404D3
:1000A0000404020202020202030303030303010227
:1000B00004081020408001020408102001020408F6
:1000C0001020DC0411241FBECFEFD8E0DEBFCDBF6F
:1000D00011E0A0E0B1E0E6E6FAE002C005900D9282
:1000E000A436B107D9F722E0A4E6B1E001C01D9221
:1000F000A431B207E1F710E0C2E6D0E004C02197D6
:10010000FE010E942B05C136D107C9F70E945D038D
:100110000C9431050C940000CF93DF9390E0FC0128
:10012000E255FF4F249186569F4FFC01849188230E
:10013000C1F090E0880F991FFC01E057FF4FC59177
:10014000D491FC01EA57FF4FA591B4919FB7F89461
:100150008881E22FE0958E2388838C91E823EC93AD
:100160009FBFDF91CF9108953FB7F89480917301BD
:1001700090917401A0917501B091760126B5A89B6C
:1001800005C02F3F19F00196A11DB11D3FBFBA2F29
:10019000A92F982F8827BC01CD01620F711D811DE9
:1001A000911D42E0660F771F881F991F4A95D1F76E
:1001B000089580916A0190916B01019690936B0173
:1001C00080936A010895809166019091670101967C
:1001D000909367018093660108950895AF92BF924E
:1001E000CF92DF92EF92FF920F931F93CF93DF9303
:1001F0006C017B018B01040F151FEB015E01AE1832
:10020000BF08C017D10759F06991D601ED91FC9153
:100210000190F081E02DC6010995892B79F7C50180
:10022000DF91CF911F910F91FF90EF90DF90CF90D2
:10023000BF90AF900895FC01538D448D252F30E081
:10024000842F90E0821B930B541710F0CF960895E3
:1002500001970895FC01918D828D981761F0A28D10
:10026000AE0FBF2FB11D5D968C91928D9F5F9F73D6
:10027000928F90E008958FEF9FEF0895FC01918D8C
:10028000828D981731F0828DE80FF11D858D90E0F9
:1002900008958FEF9FEF0895FC01918D228D892F96
:1002A00090E0805C9F4F821B91098F73992708957E
:1002B00087E791E00E944C0121E0892B09F420E0BE
:1002C000822F089580E090E0892B29F00E94580148
:1002D00081110C9400000895FC01A48DA80FB92F82
:1002E000B11DA35ABF4F2C91848D90E001968F735E
:1002F0009927848FA689B7892C93A089B1898C917D
:10030000837080648C93938D848D981306C00288CB
:10031000F389E02D80818F7D80830895EF92FF9295
:100320000F931F93CF93DF93EC0181E0888F9B8D18
:100330008C8D98131AC0E889F989808185FF15C0D2
:100340009FB7F894EE89FF896083E889F9898081F5
:100350008370806480839FBF81E090E0DF91CF91C4
:100360001F910F91FF90EF900895F62E0B8D10E0E6
:100370000F5F1F4F0F731127E02E8C8D8E110CC055
:100380000FB607FCFACFE889F989808185FFF5CFA0
:10039000CE010E946C01F1CFEB8DEC0FFD2FF11D12
:1003A000E35AFF4FF0829FB7F8940B8FEA89FB89DD
:1003B00080818062CFCFCF93DF93EC01888D88233B
:1003C000B9F0AA89BB89E889F9898C9185FD03C0B8
:1003D000808186FD0DC00FB607FCF7CF8C9185FF9D
:1003E000F2CF808185FFEDCFCE010E946C01E9CF75
:1003F000DF91CF910895FC0101900020E9F731973A
:10040000AF01481B590BBC0187E791E00C94EE004B
:100410008F929F92AF92BF920F931F93CF93DF93D0
:10042000CDB7DEB7A1970FB6F894DEBF0FBECDBF34
:1004300019A2423008F44AE08E010F5D1F4F842E4E
:10044000912CB12CA12CA50194010E940905E62F45
:10045000B901CA01EA30F4F4E05DD801EE938D01F0
:10046000232B242B252B79F790E080E0109719F0AF
:10047000CD010E94FB01A1960FB6F894DEBF0FBE1E
:10048000CDBFDF91CF911F910F91BF90AF909F9003
:100490008F900895E95CE1CFCF92DF92EF92FF92C7
:1004A000CF93DF936B017C016DE287E791E00E94BF
:1004B0008E01EC0166277727CB016C197D098E0927
:1004C0009F094AE00E9408028C0F9D1FDF91CF9187
:1004D000FF90EF90DF90CF9008951F920F920FB68C
:1004E0000F9211242F933F938F939F93AF93BF93BA
:1004F00080916F0190917001A0917101B091720192
:1005000030916E0123E0230F2D3758F50196A11D80
:10051000B11D20936E0180936F0190937001A093A1
:100520007101B09372018091730190917401A09157
:100530007501B09176010196A11DB11D80937301E3
:1005400090937401A0937501B0937601BF91AF9120
:100550009F918F913F912F910F900FBE0F901F9001
:10056000189526E8230F0296A11DB11DD2CF1F9228
:100570000F920FB60F9211242F933F934F935F93D7
:100580006F937F938F939F93AF93BF93EF93FF935B
:10059000E0910201F09103010995FF91EF91BF9164
:1005A000AF919F918F917F916F915F914F913F910B
:1005B0002F910F900FBE0F901F9018951F920F92C2
:1005C0000FB60F9211242F933F934F935F936F9326
:1005D0007F938F939F93AF93BF93EF93FF93E0919C
:1005E0000001F09101010995FF91EF91BF91AF9149
:1005F0009F918F917F916F915F914F913F912F913B
:100600000F900FBE0F901F9018951F920F920FB66C
:100610000F9211242F933F934F935F936F937F9388
:100620008F939F93AF93BF93EF93FF9387E791E0EF
:100630000E946C01FF91EF91BF91AF919F918F91BB
:100640007F916F915F914F913F912F910F900FBECE
:100650000F901F9018951F920F920FB60F921124B2
:100660002F938F939F93EF93FF93E0918701F091E6
:1006700088018081E0918D01F0918E0182FD1BC087
:100680009081809190018F5F8F73209191018217EB
:1006900041F0E0919001F0E0E958FE4F958F809392
:1006A0009001FF91EF919F918F912F910F900FBE2D
:1006B0000F901F9018958081F4CF789484B5826054
:1006C00084BD84B5816084BD85B5826085BD85B5F6
:1006D000816085BD80916E00816080936E00109274
:1006E00081008091810082608093810080918100EF
:1006F0008160809381008091800081608093800080
:100700008091B10084608093B1008091B0008160DD
:100710008093B00080917A00846080937A00809109
:100720007A00826080937A0080917A008160809361
:100730007A0080917A00806880937A001092C100DC
:10074000E0918701F091880182E08083E09183014C
:10075000F09184011082E0918501F09186018FEC87
:10076000808310928F01E0918B01F0918C0186E0E3
:100770008083E0918901F0918A018081806180838A
:10078000E0918901F0918A01808188608083E09105
:100790008901F0918A01808180688083E0918901DC
:1007A000F0918A0180818F7D808386E191E00E94B3
:1007B000FB0187E391E00E94FB0183E00E948C0033
:1007C00082E00E948C0089ED90E090930301809379
:1007D000020180916900837F886080936900E99AB3
:1007E00083EE90E090930101809300018091690075
:1007F0008C7F826080936900E89A30E8232E30E095
:10080000332E4CEB842E40E0942EC8EAD0E001E079
:1008100010E050E0A52E50E0B52EF1018491F401D6
:100820009491FE0124912223F1F0882359F0833022
:1008300009F4A3C008F096C0813009F4A4C0823046
:1008400009F4A5C0E22FF0E0EE0FFF1FE859FF4FBB
:10085000A591B4918C91982331F080916C01909185
:100860006D01892BD1F210936D0100936C012091E1
:100870006A0130916B01809168019091690128179C
:10088000390761F42091660130916701809164011C
:10089000909165012817390709F458C08AE391E05F
:1008A0000E94FB016091660170916701072E000CA8
:1008B000880B990B97FF78C00E944C028EE491E060
:1008C0000E94FB0160916A0170916B01072E000C80
:1008D000880B990B97FF6CC00E944C0287E391E054
:1008E0000E94FB010E94B4002B013C018AE0C82E4B
:1008F000D12CE12CF12C0E94B400641975098609F1
:100900009709683E734081059105A8F3F1E0CF1A7D
:10091000D108E108F10828EE420E23E0521E611CC6
:10092000711CC114D104E104F10429F780916A011A
:1009300090916B01909369018093680180916601A9
:10094000909167019093650180936401A114B104B3
:1009500009F463CF0E945801882309F45ECF0E94F6
:1009600000005BCF8730B1F08830D1F0843009F0DF
:1009700069CF809180008F7D03C0809180008F7748
:10098000809380005FCF84B58F7784BD5BCF84B5C3
:100990008F7DFBCF8091B0008F778093B00052CFD6
:1009A0008091B0008F7DF9CF4AE00E94080286CF87
:1009B0004AE00E94080292CFE7E7F1E01382128238
:1009C00088EE93E0A0E0B0E084839583A683B783AC
:1009D00088E091E09183808385EC90E0958784871F
:1009E00084EC90E09787868780EC90E0918B808BF9
:1009F00081EC90E0938B828B82EC90E0958B848BE2
:100A000086EC90E0978B868B118E128E138E148E4F
:100A10000895A1E21A2EAA1BBB1BFD010DC0AA1F3F
:100A2000BB1FEE1FFF1FA217B307E407F50720F057
:100A3000A21BB30BE40BF50B661F771F881F991FD2
:100A40001A9469F760957095809590959B01AC011B
:100A5000BD01CF010895EE0FFF1F0590F491E02D29
:060A60000994F894FFCF99
:100A6600ED00ED00000000008E01EE001B01DB0131
:100A76004C012A013E01496E696369616E646F200B
:100A86006D6F6E69746F7220646520656E636F6446
:100A96006572732E2E2E000D0A00436F6E74656FFD
:100AA60020697A7175696572646F3A20200020208A
:100AB6002020436F6E74656F206465726563686F8E
:040AC6003A202000B2
:00000001FF
