:020000040000FA
:100000000C9463000C948B000C948B000C944F04A4
:100010000C944F040C944F040C948B000C948B00A4
:100020000C948B000C948B000C948B000C948B0024
:100030000C948B000C948B000C948B000C948B0014
:100040000C94AD030C948B000C941D040C94F703DA
:100050000C948B000C948B000C948B000C948B00F4
:100060000C948B000C948B000000000024002700EF
:100070002A0000000008000201000003040700003D
:1000800000000000000000000000230026002900FE
:1000900000000000250028002B00040404040404D0
:1000A0000404020202020202030303030303010227
:1000B00004081020408001020408102001020408F6
:1000C0001020C7049A0711241FBECFEFD8E0DEBF6F
:1000D000CDBF11E0A0E0B1E0E6EDFFE002C0059089
:1000E0000D92A234B107D9F722E0A2E4B1E001C039
:1000F0001D92AB34B207E1F710E0C2E6D0E004C0D5
:100100002197FE010E94D807C136D107C9F70E9486
:1001100072050C94DE070C94000090E0FC01EE5890
:10012000FF4F2491FC01E255FF4F3491FC01E6564C
:10013000FF4FE491EE23C9F0222339F0233001F17F
:10014000A8F4213019F1223029F1F0E0EE0FFF1F61
:10015000E057FF4FA591B4918FB7F894EC916111DE
:1001600026C030953E233C938FBF08952730A9F0D9
:100170002830C9F0243049F7809180008F7D03C07A
:10018000809180008F7780938000DFCF84B58F7758
:1001900084BDDBCF84B58F7DFBCF8091B0008F779E
:1001A0008093B000D2CF8091B0008F7DF9CF3E2BED
:1001B000DACFCF93DF9390E0FC01E255FF4F24911B
:1001C00086569F4FFC0184918823D1F090E0880FE0
:1001D000991FFC01E859FF4FA591B491FC01E0572C
:1001E000FF4FC591D49161110EC09FB7F8948C91C7
:1001F000E22FE0958E238C932881E223E8839FBF32
:10020000DF91CF9108958FB7F894EC91E22BEC93A6
:100210008FBFF6CF1F93CF93DF93182FEB0161E0D1
:100220000E94D900209739F460E0812FDF91CF91AF
:100230001F910C948D00CF3FD10511F461E0F5CFF3
:10024000E12FF0E0EE58FF4FE491E33031F140F45C
:10025000E130B1F0E230E1F0C038D1057CF7E4CF15
:10026000E73029F1E83059F1E430B1F780918000AE
:10027000806280938000D0938B00C0938A0004C07A
:1002800084B5806884BDC7BDDF91CF911F9108956B
:1002900084B5806284BDC8BDF7CF8091800080683E
:1002A00080938000D0938900C0938800EDCF809127
:1002B000B00080688093B000C093B300E5CF809118
:1002C000B00080628093B000C093B400DDCFAF92E5
:1002D000BF92CF92DF92EF92FF920F931F93CF9333
:1002E000DF936C017B018B01040F151FEB015E0195
:1002F000AE18BF08C017D10759F06991D601ED912A
:10030000FC910190F081E02DC6010995892B79F7C8
:10031000C501DF91CF911F910F91FF90EF90DF907A
:10032000CF90BF90AF900895FC01538D448D252F41
:1003300030E0842F90E0821B930B541710F0CF967F
:10034000089501970895FC01918D828D981761F0B1
:10035000A28DAE0FBF2FB11D5D968C91928D9F5FC8
:100360009F73928F90E008958FEF9FEF0895FC01A7
:10037000918D828D981731F0828DE80FF11D858D5A
:1003800090E008958FEF9FEF0895FC01918D228DED
:10039000892F90E0805C9F4F821B91098F73992772
:1003A00008958FE891E00E94C50121E0892B09F4AE
:1003B00020E0822F089580E090E0892B29F00E94B0
:1003C000D10181110C9400000895FC01A48DA80FA7
:1003D000B92FB11DA35ABF4F2C91848D90E0019687
:1003E0008F739927848FA689B7892C93A089B189A7
:1003F0008C91837080648C93938D848D981306C048
:100400000288F389E02D80818F7D80830895EF92AB
:10041000FF920F931F93CF93DF93EC0181E0888FBE
:100420009B8D8C8D98131AC0E889F989808185FF8E
:1004300015C09FB7F894EE89FF896083E889F98930
:1004400080818370806480839FBF81E090E0DF9132
:10045000CF911F910F91FF90EF900895F62E0B8D85
:1004600010E00F5F1F4F0F731127E02E8C8D8E1140
:100470000CC00FB607FCFACFE889F989808185FFA7
:10048000F5CFCE010E94E501F1CFEB8DEC0FFD2FF2
:10049000F11DE35AFF4FF0829FB7F8940B8FEA8962
:1004A000FB8980818062CFCFCF93DF93EC01888D71
:1004B0008823B9F0AA89BB89E889F9898C9185FDDF
:1004C00003C0808186FD0DC00FB607FCF7CF8C916D
:1004D00085FFF2CF808185FFEDCFCE010E94E5013F
:1004E000E9CFDF91CF91089520918401309185016A
:1004F0002817390771F49091820180918301981730
:1005000041F0E0918201F0E0EE5BFE4F808190E0EF
:1005100008958FEF9FEF08950895EF92FF920F9344
:100520001F93CF93DF93DC015C96ED90FC905D9779
:10053000E114F10479F481E090E013969C938E939A
:10054000129790E080E0DF91CF911F910F91FF9083
:10055000EF9008955196ED91FC91529750968C91A1
:100560005097982F90950FB75E962C915E97122F0B
:10057000127021FD6095F8942081112319F1282B28
:100580002083E7012197F1F728E0462F50E03081E2
:1005900060FF1AC0382B3083E7012197F1F7BA01C9
:1005A00075956795215089F7112381F08081892302
:1005B00080830FBF5C968D919C910197F1F781E04C
:1005C00090E0C1CF2923DCCF3923E5CF9081892B5F
:1005D000EFCF20918401309185012817390761F40C
:1005E000809183012091820190E0805C9F4F821B6B
:1005F00091098F739927089590E080E008952091E4
:1006000084013091850128173907B9F4909182014E
:1006100080918301981789F0E0918201F0E0EE5B10
:10062000FE4F80812091820130E02F5F3F4F2F737A
:1006300033272093820190E008958FEF9FEF089574
:1006400090E080E00895FC0101900020E9F73197E7
:10065000AF01481B590BBC018FE891E00C94670176
:100660008F929F92AF92BF92CF92DF92EF92FF92C2
:100670000F931F93CF93DF93CDB7DEB7A1970FB63C
:10068000F894DEBF0FBECDBF6C01990FEE08FF08D6
:10069000F7FE41C06DE28FE891E00E9407028C01F5
:1006A00022273327A9012C193D094E095F0919A2F8
:1006B000CE0181967C019AE0892E912CA12CB12C3F
:1006C000CA01B901A50194010E94B607605DF70156
:1006D00062937F01211531054105510589F790E0AD
:1006E00080E0309719F0CF010E942303800F911F03
:1006F000A1960FB6F894DEBF0FBECDBFDF91CF91AC
:100700001F910F91FF90EF90DF90CF90BF90AF902F
:100710009F908F900895A701960119A28E010F5DF9
:100720001F4F8AE0C82ED12CE12CF12CCA01B9014F
:10073000A70196010E94B607605DF80162938F01E0
:10074000211531054105510589F790E080E030978A
:1007500079F2CF010E942303CBCF1F920F920FB6E5
:100760000F9211242F933F938F939F93AF93BF9337
:1007700080918B0190918C01A0918D01B0918E019F
:1007800030918A0123E0230F2D3758F50196A11DE2
:10079000B11D20938A0180938B0190938C01A093CB
:1007A0008D01B0938E018091860190918701A09177
:1007B0008801B09189010196A11DB11D8093860128
:1007C00090938701A0938801B0938901BF91AF9165
:1007D0009F918F913F912F910F900FBE0F901F907F
:1007E000189526E8230F0296A11DB11DD2CF1F92A6
:1007F0000F920FB60F9211242F933F934F935F9355
:100800006F937F938F939F93AF93BF93EF93FF93D8
:100810008FE891E00E94E501FF91EF91BF91AF91C8
:100820009F918F917F916F915F914F913F912F9108
:100830000F900FBE0F901F9018951F920F920FB63A
:100840000F9211242F938F939F93EF93FF93E09137
:100850009F01F091A0018081E091A501F091A60196
:1008600082FD1BC090818091A8018F5F8F732091C2
:10087000A901821741F0E091A801F0E0E157FE4F95
:10088000958F8093A801FF91EF919F918F912F9168
:100890000F900FBE0F901F9018958081F4CF1F927C
:1008A0000F920FB60F9211242F933F934F935F93A4
:1008B0006F937F938F939F93AF93BF93EF93FF9328
:1008C000E0918401F0918501309749F0A685B785C4
:1008D0008585968D91FF14C09C918923A1F4FF9189
:1008E000EF91BF91AF919F918F917F916F915F91A8
:1008F0004F913F912F910F900FBE0F901F90189521
:100900009C91892361F7A389B4899C9185898095FD
:1009100089238C93868997890197F1F7608D718D72
:10092000A685B785558538E020E0CB010197F1F722
:10093000822F90E095958795282F4C91452309F0BB
:100940002068315091F7868D81FD2095809183013B
:1009500090E001968F73992730918201381799F0B2
:10096000A0918301B0E0AE5BBE4F2C9380938301D6
:10097000828D938D0197F1F7A389B4898C91958924
:10098000892B8C93ACCF868D8160868FF1CF1092AE
:1009900092011092910188EE93E0A0E0B0E0809384
:1009A000930190939401A0939501B093960128E050
:1009B00031E03093900120938F0125EC30E03093AB
:1009C0009C0120939B0124EC30E030939E01209306
:1009D0009D0120EC30E03093A00120939F0121EC99
:1009E00030E03093A2012093A10122EC30E030935B
:1009F000A4012093A30126EC30E03093A6012093BC
:100A0000A5011092A8011092A9011092AA011092BA
:100A1000AB0110922F0210922E028093300290931D
:100A20003102A0933202B09333028AE191E09093B5
:100A30002D0280932C0210924302109242021092D7
:100A40004502109244021092470210924602109200
:100A500049021092480260914A026E7F6D7F609356
:100A60004A026695617081E068278BE00E948D00E4
:100A700061E08BE00E94D900E9EBF0E0E491E093C3
:100A80003C02E5EAF0E0E491F0E0EE0FFF1FE057F2
:100A9000FF4F8591949190933E0280933D0260E0D8
:100AA0008AE00E94D90080914A0281FD04C061E081
:100AB0008AE00E948D008AE080933802E8EBF0E043
:100AC000E491E0933902E4EAF0E0E491F0E0EE0F23
:100AD000FF1FEA57FF4F8591949190933B028093BB
:100AE0003A020895789484B5826084BD84B58160AB
:100AF00084BD85B5826085BD85B5816085BD8091E9
:100B00006E00816080936E00109281008091810060
:100B10008260809381008091810081608093810058
:100B2000809180008160809380008091B10084601A
:100B30008093B1008091B00081608093B00080917B
:100B40007A00846080937A0080917A00826080933A
:100B50007A0080917A00816080937A0080917A0097
:100B6000806880937A001092C100E0919F01F0911B
:100B7000A00182E08083E0919B01F0919C011082B2
:100B8000E0919D01F0919E0180E180831092A70188
:100B9000E091A301F091A40186E08083E091A1019E
:100BA000F091A201808180618083E091A101F091A8
:100BB000A201808188608083E091A101F091A2016F
:100BC000808180688083E091A101F091A201808101
:100BD0008F7D808310924702109246021092450248
:100BE0001092440210924302109242028DE991E069
:100BF000909349028093480290913802963108F010
:100C000047C02DEB30E030934302209342022BE9A2
:100C100031E030934502209344022CE231E03093DE
:100C20004702209346022091680084E0983048F003
:100C300031E09E3008F430E081E001C0880F3A9541
:100C4000EAF7822B809368002DE630E0983050F070
:100C50002BE630E09E3030F02CE630E0963110F09C
:100C600030E020E03093400220933F02292F30E013
:100C7000983008F08BC081E001C0880F9A95EAF7A0
:100C80008093410280914802909149020197F1F7C7
:100C90008091460290914702892B49F1E0918401AD
:100CA000F091850182E0EC32F80709F1309739F0D4
:100CB000A389B4899C918589809589238C9380919F
:100CC0004A028E7F80934A02109283011092820121
:100CD0008CE292E09093850180938401E0913F0241
:100CE000F0914002808190914102892B8083C5E080
:100CF00061E08C2F0E94D900CF5FCA30C9F7C5E0F0
:100D000060E08C2F0E948D00CF5FCA30C9F780E071
:100D1000C82E80E0D82E00E510E0EE24EA94F12CF5
:100D20008CE292E00E94E902892B09F4D6C08CE2A1
:100D300092E00E94FF02C82F682F8FE891E00E9486
:100D4000070288E291E00E942303C23509F48EC0B5
:100D500054F5C63409F45AC0CC3409F468C0C2341E
:100D600049F561E087E00E948D0060E088E00E9424
:100D70008D00609100017091010189E00E940A01DB
:100D800060E084E00E948D0061E065C09E3040F428
:100D90002850310981E001C0880F2A95EAF770CF09
:100DA0002E503109F7CFC33709F4A8C0E4F4C33695
:100DB00009F4B2C060E084E00E948D0060E086E04B
:100DC0000E948D0070E060E085E00E940A0160E012
:100DD00087E00E948D0060E088E00E948D0070E056
:100DE00060E089E040C0C43709F446C0C83711F755
:100DF0008091000190910101813591050CF479C039
:100E00000A97909301018093000147C060E087E05A
:100E10000E948D0061E088E00E948D0060910001D9
:100E20007091010189E00E940A0161E010C060E058
:100E300087E00E948D0061E088E00E948D00609153
:100E400000017091010189E00E940A0160E084E0E4
:100E50000E948D0060E086E00E948D00609102019A
:100E60007091030185E00E940A0117C060E087E0ED
:100E70000E948D0060E0CFCF80910201909103012C
:100E80008F3F910534F40A969093030180930201F9
:100E900004C0F0920301E09202018BE291E00E9413
:100EA00023038DE291E00E9423038091020190913F
:100EB00003010E94300386E391E00E94230388E34C
:100EC00091E00E94230380910001909101010E9412
:100ED000300388E291E00E942303C114D10409F495
:100EE0001FCF0E94D101882309F41ACF0E9400006D
:100EF00017CF1093010100930001CFCF8091020121
:100F0000909103018135910514F00A97BDCF10939C
:100F1000030100930201C1CF809100019091010172
:100F20008F3F910514F40A966CCFF0920101E09284
:100F30000001B3CF8AE191E090932D0280932C02BF
:100F400080918401909185018C52924071F4E091DE
:100F50003F02F09140029081809141028095892367
:100F6000808310928501109284010895A1E21A2EC7
:100F7000AA1BBB1BFD010DC0AA1FBB1FEE1FFF1F3D
:100F8000A217B307E407F50720F0A21BB30BE40B8D
:100F9000F50B661F771F881F991F1A9469F76095D4
:100FA0007095809590959B01AC01BD01CF0108958E
:100FB000EE0FFF1F0590F491E02D099410E0C2E6BA
:100FC000D0E004C0FE010E94D8072196C336D107A5
:100FD000C9F7F894FFCFC800C8000000000007025E
:100FE000670194015402C501A301B701000000008C
:100FF0008D02670120038C02E902FF0274020D0AD0
:10100000003E0056656C5F497A713A002C005665C7
:081010006C5F4465723A0000B8
:107800000C94343C0C94513C0C94513C0C94513CE1
:107810000C94513C0C94513C0C94513C0C94513CB4
:107820000C94513C0C94513C0C94513C0C94513CA4
:107830000C94513C0C94513C0C94513C0C94513C94
:107840000C94513C0C94513C0C94513C0C94513C84
:107850000C94513C0C94513C0C94513C0C94513C74
:107860000C94513C0C94513C11241FBECFEFD8E036
:10787000DEBFCDBF11E0A0E0B1E0ECE9FFE702C060
:1078800005900D92A230B107D9F712E0A2E0B1E065
:1078900001C01D92AD30B107E1F70E942D3D0C945F
:1078A000CC3F0C94003C982F959595959595959582
:1078B000905D8F708A307CF0282F295A8091C0000B
:1078C00085FFFCCF9093C6008091C00085FFFCCF60
:1078D0002093C6000895282F205DF0CF982F809127
:1078E000C00085FFFCCF9093C6000895EF92FF92F1
:1078F0000F931F93EE24FF2487018091C00087FD22
:1079000017C00894E11CF11C011D111D81E4E8164B
:1079100082E4F8068FE0080780E0180770F3E09132
:107920000401F091050109958091C00087FFE9CF1E
:107930008091C6001F910F91FF90EF9008950E94D3
:10794000763C982F8091C00085FFFCCF9093C600B5
:1079500091362CF490330CF09053892F089597555D
:10796000892F08951F930E949F3C182F0E949F3CCF
:107970001295107F810F1F9108951F93182F882350
:1079800021F00E94763C1150E1F71F9108951F935A
:10799000182F0E94763C803249F0809103018F5F5E
:1079A000809303018530C1F01F9108958091C0003C
:1079B00085FFFCCF84E18093C6008091C00085FFE5
:1079C000FCCF1093C6008091C00085FFFCCF80E102
:1079D0008093C6001F910895E0910401F091050184
:1079E00009951F9108950E94763C803241F0809164
:1079F00003018F5F80930301853081F008958091AA
:107A0000C00085FFFCCF84E18093C6008091C00058
:107A100085FFFCCF80E18093C6000895E0910401CA
:107A2000F09105010995089540E951E08823A1F0FE
:107A30002D9A28EE33E0FA013197F1F721503040CA
:107A4000D1F72D9828EE33E0FA013197F1F7215064
:107A50003040D1F7815061F708953F924F925F9285
:107A60006F927F928F929F92AF92BF92CF92DF924E
:107A7000EF92FF920F931F93CF93DF93000080E16B
:107A80008093C4001092C50088E18093C10086E015
:107A90008093C2005098589A259A81E00E94143D24
:107AA00024E1F22E9EE1E92E85E9D82E0FE0C02ECA
:107AB00010E1B12EAA24A394B1E49B2EA6E58A2E50
:107AC000F2E57F2EE0E26E2E79E4572E63E5462E36
:107AD00050E5352E0E94763C8033B1F18133B9F107
:107AE000803409F46FC0813409F476C0823409F41B
:107AF00085C0853409F488C0803531F1823521F1A3
:107B0000813511F1853509F485C0863509F48DC0BC
:107B1000843609F496C0843709F403C1853709F423
:107B200072C1863709F466C0809103018F5F80932C
:107B30000301853079F6E0910401F0910501099582
:107B40000E94763C803351F60E94F33CC3CF0E94E2
:107B5000763C803249F78091C00085FFFCCFF092DF
:107B6000C6008091C00085FFFCCF9092C600809136
:107B7000C00085FFFCCF8092C6008091C00085FFC9
:107B8000FCCF7092C6008091C00085FFFCCF609250
:107B9000C6008091C00085FFFCCF5092C600809146
:107BA000C00085FFFCCF4092C6008091C00085FFD9
:107BB000FCCF3092C6008091C00085FFFCCFB09210
:107BC000C60088CF0E94763C863808F4BDCF0E945C
:107BD000763C0E94F33C7ECF0E94763C803809F4CC
:107BE0009CC0813809F40BC1823809F43CC1883942
:107BF00009F48FC080E00E94C73C6CCF84E10E94F2
:107C0000BD3C0E94F33C66CF85E00E94BD3C0E94D3
:107C1000F33C60CF0E94763C809306010E94763C44
:107C2000809307010E94F33C55CF0E94763C80333D
:107C300009F41DC183E00E94BD3C80E00E94C73C66
:107C400049CF0E94763C809309020E94763C809343
:107C5000080280910C028E7F80930C020E94763C79
:107C6000853409F415C18091080290910902892B8D
:107C700089F000E010E00E94763CF801E85FFE4FDA
:107C800080830F5F1F4F80910802909109020817AF
:107C9000190788F30E94763C803209F045CF809125
:107CA0000C0280FF01C16091060170910701660F0F
:107CB000771F7093070160930601A0910802B091AD
:107CC00009021097C9F0E8E0F1E09B01AD014E0F09
:107CD0005F1FF999FECF32BD21BD819180BDFA9A17
:107CE000F99A2F5F3F4FE417F50799F76A0F7B1F4B
:107CF00070930701609306018091C00085FFFCCF5F
:107D0000F092C6008091C00085FFFCCFB092C60003
:107D1000E1CE83E00E94C73CDDCE82E00E94C73CFA
:107D2000D9CE0E94763C809309020E94763C8093D3
:107D300008028091060190910701880F991F909386
:107D40000701809306010E94763C853409F4A6C0A1
:107D500080910C028E7F80930C020E94763C8032D0
:107D600009F0B8CE8091C00085FFFCCFF092C6002C
:107D7000609108027091090261157105B9F140E046
:107D800050E080910C02A82FA170B82FB27011C0E2
:107D9000BB2309F45CC0E0910601F0910701319624
:107DA000F0930701E09306014F5F5F4F46175707B7
:107DB000E8F4AA2369F3F999FECF209106013091E6
:107DC000070132BD21BDF89A90B58091C00085FFB2
:107DD000FCCF9093C6002F5F3F4F30930701209355
:107DE00006014F5F5F4F4617570718F38091C00099
:107DF00085FDE5CE8091C00085FFF8CFE0CE81E023
:107E00000E94C73C67CE0E94763C803209F08CCE3F
:107E10008091C00085FFFCCFF092C6008091C00029
:107E200085FFFCCFE092C6008091C00085FFFCCFAB
:107E3000D092C6008091C00085FFFCCFC092C600E2
:107E40008091C00085FFFCCFB092C60043CEE09188
:107E50000601F091070194918091C00085FFFCCF4D
:107E60009093C6009CCF80E10E94C73C33CE0E9415
:107E7000763C0E94763C182F0E94763C112309F430
:107E800083C0113009F484C08FE00E94C73C22CE29
:107E900080910C02816080930C02E5CE80910C02EF
:107EA000816080930C0259CF809107018823880F4D
:107EB000880B8A2180930B02809106019091070123
:107EC000880F991F90930701809306018091080203
:107ED00080FF09C080910802909109020196909359
:107EE000090280930802F894F999FECF1127E091D6
:107EF0000601F0910701C8E0D1E08091080290915D
:107F00000902103091F40091570001700130D9F34B
:107F100003E000935700E89500915700017001308D
:107F2000D9F301E100935700E89509901990009169
:107F3000570001700130D9F301E000935700E89534
:107F40001395103498F011270091570001700130FB
:107F5000D9F305E000935700E895009157000170B0
:107F60000130D9F301E100935700E895329602976A
:107F700009F0C7CF103011F00296E5CF112480919F
:107F8000C00085FFB9CEBCCE8EE10E94C73CA2CD19
:0E7F900085E90E94C73C9ECDF894FFCF80008B
:00000001FF
