:100000000C9463000C94CE060C94A7060C944D0738
:100010000C944D070C944D070C948B000C948B00A2
:100020000C948B000C948B000C948B000C948B0024
:100030000C948B000C948B000C948B000C948B0014
:100040000C945D060C948B000C941B070C94F50625
:100050000C948B000C948B000C948B000C948B00F4
:100060000C948B000C948B000000000024002700EF
:100070002A0000000008000201000003040700003D
:1000800000000000000000000000230026002900FE
:1000900000000000250028002B00040404040404D0
:1000A0000404020202020202030303030303010227
:1000B00004081020408001020408102001020408F6
:1000C00010200A08C00C11241FBECFEFD8E0DEBFFD
:1000D000CDBF25E0A0E3B4E001C01D92AE35B2076C
:1000E000E1F714E0A0E0B1E0E2E8F3E202C005903D
:1000F0000D92A033B107D9F710E0C2E6D0E004C0FA
:100100002197FE010E94B10FC136D107C9F70E94A5
:10011000C8080C94B4110C94000090E0FC01EE5857
:10012000FF4F2491FC01E255FF4F3491FC01E6564C
:10013000FF4FE491EE23C9F0222339F0233001F17F
:10014000A8F4213019F1223029F1F0E0EE0FFF1F61
:10015000E057FF4FA591B4918FB7F894EC916111DE
:1001600026C030953E233C938FBF08952730A9F0D9
:100170002830C9F0243049F7809180008F7D03C07A
:10018000809180008F7780938000DFCF84B58F7758
:1001900084BDDBCF84B58F7DFBCF8091B0008F779E
:1001A0008093B000D2CF8091B0008F7DF9CF3E2BED
:1001B000DACFCF93DF9390E0FC01E255FF4F24911B
:1001C00086569F4FFC0184918823D1F090E0880FE0
:1001D000991FFC01E859FF4FA591B491FC01E0572C
:1001E000FF4FC591D49161110EC09FB7F8948C91C7
:1001F000E22FE0958E238C932881E223E8839FBF32
:10020000DF91CF9108958FB7F894EC91E22BEC93A6
:100210008FBFF6CF1F93CF93DF93182FEB0161E0D1
:100220000E94D900209739F460E0812FDF91CF91AF
:100230001F910C948D00CF3FD10511F461E0F5CFF3
:10024000E12FF0E0EE58FF4FE491E33031F140F45C
:10025000E130B1F0E230E1F0C038D1057CF7E4CF15
:10026000E73029F1E83059F1E430B1F780918000AE
:10027000806280938000D0938B00C0938A0004C07A
:1002800084B5806884BDC7BDDF91CF911F9108956B
:1002900084B5806284BDC8BDF7CF8091800080683E
:1002A00080938000D0938900C0938800EDCF809127
:1002B000B00080688093B000C093B300E5CF809118
:1002C000B00080628093B000C093B400DDCF8E5048
:1002D000806480937C0080917A00806480937A00AF
:1002E00080917A0086FDFCCF809178009091790012
:1002F00008953FB7F8948091940490919504A0914B
:100300009604B091970426B5A89B05C02F3F19F01D
:100310000196A11DB11D3FBFBA2FA92F982F882785
:10032000BC01CD01620F711D811D911D42E0660F60
:10033000771F881F991F4A95D1F708952FB7F89412
:100340006091900470919104809192049091930433
:100350002FBF089508950895AF92BF92CF92DF9274
:10036000EF92FF920F931F93CF93DF936C017B016A
:100370008B01040F151FEB015E01AE18BF08C017FB
:10038000D10759F06991D601ED91FC910190F0816E
:10039000E02DC6010995892B79F7C501DF91CF9131
:1003A0001F910F91FF90EF90DF90CF90BF90AF9093
:1003B0000895FC01538D448D252F30E0842F90E06B
:1003C000821B930B541710F0CF9608950197089550
:1003D000FC01918D828D981761F0A28DAE0FBF2F19
:1003E000B11D5D968C91928D9F5F9F73928F90E06F
:1003F00008958FEF9FEF0895FC01918D828D9817DE
:1004000031F0828DE80FF11D858D90E008958FEF1A
:100410009FEF0895FC01918D228D892F90E0805CE3
:100420009F4F821B91098F739927089588E994E063
:100430000E940A0221E0892B09F420E0822F08950E
:10044000FC01A48DA80FB92FB11DA35ABF4F2C9149
:10045000848D90E001968F739927848FA689B78940
:100460002C93A089B1898C91837080648C93938D37
:10047000848D981306C00288F389E02D80818F7DDA
:1004800080830895EF92FF920F931F93CF93DF9392
:10049000EC0181E0888F9B8D8C8D98131AC0E889C0
:1004A000F989808185FF15C09FB7F894EE89FF898F
:1004B0006083E889F98980818370806480839FBF2D
:1004C00081E090E0DF91CF911F910F91FF90EF902D
:1004D0000895F62E0B8D10E00F5F1F4F0F7311273D
:1004E000E02E8C8D8E110CC00FB607FCFACFE88978
:1004F000F989808185FFF5CFCE010E942002F1CFDE
:10050000EB8DEC0FFD2FF11DE35AFF4FF0829FB7EB
:10051000F8940B8FEA89FB8980818062CFCFCF93DB
:10052000DF93EC01888D8823B9F0AA89BB89E8891B
:10053000F9898C9185FD03C0808186FD0DC00FB6C1
:1005400007FCF7CF8C9185FFF2CF808185FFEDCF3F
:10055000CE010E942002E9CFDF91CF910895209132
:100560007204309173042817390771F49091700464
:1005700080917104981741F0E0917004F0E0E05D23
:10058000FB4F808190E008958FEF9FEF08950895CD
:10059000EF92FF920F931F93CF93DF93DC015C9652
:1005A000ED90FC905D97E114F10479F481E090E026
:1005B00013969C938E93129790E080E0DF91CF91F9
:1005C0001F910F91FF90EF9008955196ED91FC913E
:1005D000529750968C915097982F90950FB75E96A2
:1005E0002C915E97122F127021FD6095F894208156
:1005F000112319F1282B2083E7012197F1F728E037
:10060000462F50E0308160FF1AC0382B3083E7015D
:100610002197F1F7BA0175956795215089F7112354
:1006200081F08081892380830FBF5C968D919C919E
:100630000197F1F781E090E0C1CF2923DCCF392386
:10064000E5CF9081892BEFCF209172043091730414
:100650002817390761F4809171042091700490E0AB
:10066000805C9F4F821B91098F739927089590E0BA
:1006700080E008952091720430917304281739079F
:10068000B9F49091700480917104981789F0E09109
:100690007004F0E0E05DFB4F80812091700430E059
:1006A0002F5F3F4F2F7333272093700490E00895FE
:1006B0008FEF9FEF089590E080E008951F93CF9310
:1006C000DF93C62FD72FD7FF03C0D195C195D1098E
:1006D000DD27672F661F6627661F7095172F111F6E
:1006E0001127111F81110EC086E00E948D00612F1D
:1006F00084E00E948D00BE0185E0DF91CF911F91C3
:100700000C940A0187E00E948D00612F88E00E940E
:100710008D00BE0189E0F1CF809180049091810429
:10072000A0918204B09183040196A11DB11D809314
:10073000800490938104A0938204B093830408956D
:100740008091780490917904A0917A04B0917B040F
:100750000196A11DB11D8093780490937904A09314
:100760007A04B0937B040895FC0101900020E9F71E
:100770003197AF01481B590BBC0188E994E00C94F8
:10078000AC018F929F92AF92BF920F931F93CF9322
:10079000DF93CDB7DEB7A1970FB6F894DEBF0FBEDB
:1007A000CDBF19A2423008F44AE08E010F5D1F4F01
:1007B000842E912CB12CA12CA50194010E948F0FA5
:1007C000E62FB901CA01EA30F4F4E05DD801EE93F6
:1007D0008D01232B242B252B79F790E080E01097B7
:1007E00019F0CD010E94B403A1960FB6F894DEBFB4
:1007F0000FBECDBFDF91CF911F910F91BF90AF90F2
:100800009F908F900895E95CE1CFCF93DF930E9492
:10081000B403EC018EE291E00E94B4038C0F9D1FA3
:10082000DF91CF9108950C94B4034F925F926F9231
:100830007F928F929F92AF92BF92CF92DF92EF9270
:10084000FF920F931F93CF936B017C01742EAC0129
:100850009B010E948A0F882399F081E391E0CF9158
:100860001F910F91FF90EF90DF90CF90BF90AF90CE
:100870009F908F907F906F905F904F900C94B403F7
:1008800046015701E894B7F82FEF3FEF4FE75FE7D6
:10089000C501B4010E948A0F81110DC02FEF3FEFF7
:1008A0004FE75FE7C501B4010E941C0D18161CF448
:1008B00085E391E0D4CF2FEF3FEF4FE75FE4C7012F
:1008C000B6010E94850F18161CF489E391E0C7CF8A
:1008D0002FEF3FEF4FE75FECC701B6010E941C0D01
:1008E00087FDF3CF20E030E0A901C701B6010E94E7
:1008F0001C0D10E000E087FF0AC06DE288E994E07B
:100900000E9442028C01F7FAF094F7F8F094C0E0EC
:1009100060E070E080E09FE37C1641F020E030E092
:1009200040E251E40E94E40ECF5FF6CFA7019601AA
:100930000E94780E2B013C010E94560F4B015C0176
:100940004AE00E94C1037C01E00EF11ECC23C1F1FC
:10095000C501B4010E94210D9B01AC01C301B2018C
:100960000E94770E4B015C016EE288E994E00E94E0
:100970004202E80EF91EC15018F120E030E040E2DA
:1009800051E4C501B4010E94820D2B013C010E947B
:10099000560F4B01B12CA12C4AE0C501B4010E94B5
:1009A000C103E80EF91EC501B4010E94210D9B018F
:1009B000AC01C301B2010E94770E4B015C01DBCF99
:1009C000C701CF911F910F91FF90EF90DF90CF90D3
:1009D000BF90AF909F908F907F906F905F904F905F
:1009E0000895FC0180819181009711F00C945310BF
:1009F00008950F931F93CF93DF93EC018881998122
:100A0000009759F02A813B812617370730F081E0A3
:100A1000DF91CF911F910F9108958B016F5F7F4FF1
:100A20000E94DC10009759F0998388831B830A8306
:100A30002C813D81232B59F7FC011082E8CF80E007
:100A4000E7CFEF92FF920F931F93CF93DF93EC01C9
:100A50007B018A01BA010E94F90428813981811140
:100A600014C02115310519F0C9010E9453101982D3
:100A700018821D821C821B821A82CE01DF91CF91C7
:100A80001F910F91FF90EF9008951D830C83B70184
:100A9000C9010E94AD11F1CFCF92DF92EF92FF9288
:100AA0000F931F93CF93DF93EC016B017A014617ED
:100AB000570720F48D2D6A01E62EF82E1982188230
:100AC0001B821A821D821C8250E040E060E371E0CC
:100AD000CE010E9421050091390510913A05C016FA
:100AE000D10640F5E016F10608F48701E0913505DE
:100AF000F0913605E00FF11FF0801082609135050E
:100B0000709136056C0D7D1D61157105E9F0FB01D5
:100B100001900020E9F73197AF01461B570BCE013A
:100B20000E9421058091350590913605080F191F07
:100B3000F801F082CE01DF91CF911F910F91FF90CC
:100B4000EF90DF90CF90089588819981009711F000
:100B50000E945310198218821D821C821B821A82E5
:100B6000E1CFEF92FF920F931F93CF93DF9300D0CB
:100B7000CDB7DEB7EE24E39488E994E00E940A0240
:100B8000892B69F188E994E00E94E801F82E8983B5
:100B90001A820091390510913A050F5F1F4FB80175
:100BA00085E395E00E94F904882399F020913505AA
:100BB000309136058091390590913A05BE016F5FFD
:100BC0007F4F820F931F0E94AD1110933A0500933F
:100BD00039058AE0F812D0CFE0928E04CDCF0F9085
:100BE0000F90DF91CF911F910F91FF90EF9008959B
:100BF0000E94160281110C94B1050895CF92DF92E4
:100C0000EF92FF920F931F9360E082E10E948D00AC
:100C100083E090E00197F1F761E082E10E948D00AE
:100C200083E290E00197F1F760E082E10E948D009D
:100C3000E1ECF0E06491EDEAF0E0E491F0E0EE0F39
:100C4000FF1FEA57FF4F8591949100E315E720E0DD
:100C500030E0462F0E94C507611571058105910599
:100C600029F06F5F7F4F8F4F9F4F9F700E94230D22
:100C700026E933E44BE05DE30E94820D20E030E0A2
:100C800040E05FE30E94820D6B017C0120E030E0D8
:100C900048E453E40E94850F181634F4C12CD12C7B
:100CA00088E4E82E83E4F82EC701B6011F910F9166
:100CB000FF90EF90DF90CF9008951F920F920FB6A4
:100CC0000F9211242F933F938F939F93AF93BF93D2
:100CD0008091900490919104A0919204B09193041A
:100CE00030918F0423E0230F2D3758F50196A11D75
:100CF000B11D20938F048093900490939104A0934E
:100D00009204B09393048091940490919504A091DF
:100D10009604B09197040196A11DB11D809394048F
:100D200090939504A0939604B0939704BF91AF91CC
:100D30009F918F913F912F910F900FBE0F901F9019
:100D4000189526E8230F0296A11DB11DD2CF1F9240
:100D50000F920FB60F9211242F933F934F935F93EF
:100D60006F937F938F939F93AF93BF93EF93FF9373
:100D7000E0910201F09103010995FF91EF91BF917C
:100D8000AF919F918F917F916F915F914F913F9123
:100D90002F910F900FBE0F901F9018951F920F92DA
:100DA0000FB60F9211242F933F934F935F936F933E
:100DB0007F938F939F93AF93BF93EF93FF93E091B4
:100DC0000001F09101010995FF91EF91BF91AF9161
:100DD0009F918F917F916F915F914F913F912F9153
:100DE0000F900FBE0F901F9018951F920F920FB685
:100DF0000F9211242F933F934F935F936F937F93A1
:100E00008F939F93AF93BF93EF93FF9388E994E001
:100E10000E942002FF91EF91BF91AF919F918F911E
:100E20007F916F915F914F913F912F910F900FBEE6
:100E30000F901F9018951F920F920FB60F921124CA
:100E40002F938F939F93EF93FF93E091A804F091DA
:100E5000A9048081E091AE04F091AF0482FD1BC033
:100E600090818091B1048F5F8F732091B2048217BB
:100E700041F0E091B104F0E0E856FB4F958F80938C
:100E8000B104FF91EF919F918F912F910F900FBE21
:100E90000F901F9018958081F4CF1F920F920FB67C
:100EA0000F9211242F933F934F935F936F937F93F0
:100EB0008F939F93AF93BF93EF93FF93E09172044F
:100EC000F0917304309749F0A685B7858585968D96
:100ED00091FF14C09C918923A1F4FF91EF91BF91E0
:100EE000AF919F918F917F916F915F914F913F91C2
:100EF0002F910F900FBE0F901F9018959C918923F2
:100F000061F7A389B4899C918589809589238C9305
:100F1000868997890197F1F7608D718DA685B785D0
:100F2000558538E020E0CB010197F1F7822F90E062
:100F300095958795282F4C91452309F020683150CD
:100F400091F7868D81FD20958091710490E0019646
:100F50008F73992730917004381799F0A09171041C
:100F6000B0E0A05DBB4F2C9380937104828D938D74
:100F70000197F1F7A389B4898C919589892B8C937A
:100F8000ACCF868D8160868FF1CFCF92DF92EF92CA
:100F9000FF920F931F93E82FF92F05C001501109FD
:100FA0002109310961F1908196239417B9F305C0A5
:100FB000015011092109310911F1908196239413EF
:100FC000F7CFC12CD12CE12CF12C0AC08FEFC81A1D
:100FD000D80AE80AF80A0C151D052E053F0579F018
:100FE00080818623841791F36C2D7D2D8E2D9F2D6E
:100FF0001F910F91FF90EF90DF90CF90089560E0E8
:1010000070E080E090E01F910F91FF90EF90DF90F3
:10101000CF90089510929B0410929A0488EE93E06A
:10102000A0E0B0E080939C0490939D04A0939E0464
:10103000B0939F042EE031E03093990420939804FC
:1010400025EC30E03093A5042093A40424EC30E098
:101050003093A7042093A60420EC30E03093A90439
:101060002093A80421EC30E03093AB042093AA0431
:1010700022EC30E03093AD042093AC0426EC30E059
:101080003093AF042093AE041092B1041092B204D6
:101090001092B3041092B40410923E0510923D05D4
:1010A00080933F0590934005A0934105B09342057E
:1010B00080E291E090933C0580933B0510925205AD
:1010C0001092510510925405109253051092560536
:1010D00010925505109258051092570560915905C8
:1010E0006E7F6D7F609359056695617081E068271A
:1010F0008AE00E948D0061E08AE00E94D900E8EB5E
:10110000F0E0E491E0934B05E4EAF0E0E491F0E0F4
:10111000EE0FFF1FE057FF4F8591949190934D057F
:1011200080934C0560E08BE00E94D90080915905C6
:1011300081FD04C061E08BE00E948D008BE0809314
:101140004705E9EBF0E0E491E0934805E5EAF0E0DB
:10115000E491F0E0EE0FFF1FEA57FF4F8591949165
:1011600090934A05809349051092360510923505F3
:10117000109238051092370510923A0510923905F1
:1011800050E040E060E371E085E395E00C942105D8
:10119000CF93DF9300D000D000D0CDB7DEB77894E6
:1011A00084B5826084BD84B5816084BD85B582606C
:1011B00085BD85B5816085BD80916E00816080931D
:1011C0006E00109281008091810082608093810086
:1011D0008091810081608093810080918000816096
:1011E000809380008091B10084608093B1008091F1
:1011F000B00081608093B00080917A008460809319
:101200007A0080917A00826080937A0080917A00DF
:10121000816080937A0080917A00806880937A0060
:101220001092C100E091A804F091A90482E08083AB
:10123000E091A404F091A5041082E091A604F0913D
:10124000A70480E180831092B004E091AC04F09197
:10125000AD0486E08083E091AA04F091AB04808124
:1012600080618083E091AA04F091AB048081886062
:101270008083E091AA04F091AB0480818068808330
:10128000E091AA04F091AB0480818F7D808310925D
:101290005605109255051092540510925305109260
:1012A0005205109251058DE991E090935805809375
:1012B000570590914705963108F047C02DEB30E077
:1012C00030935205209351052BE931E030935405BA
:1012D000209353052CE231E03093560520935505B9
:1012E0002091680084E0983048F031E09E3008F4A6
:1012F00030E081E001C0880F3A95EAF7822B8093B5
:1013000068002DE630E0983050F02BE630E09E305B
:1013100030F02CE630E0963110F030E020E03093F1
:101320004F0520934E05292F30E0983008F0F5C284
:1013300081E001C0880F9A95EAF78093500580916B
:101340005705909158050197F1F7809155059091B7
:101350005605892B49F1E0917204F091730425E060
:10136000EB33F20709F1309739F0A389B4899C91E6
:101370008589809589238C93809159058E7F8093F0
:10138000590510927104109270048BE395E09093CC
:10139000730480937204E0914E05F0914F058081B3
:1013A00090915005892B80830E9479012B013C018B
:1013B00094EFC92EDD24D394E12CF12C0E94790105
:1013C0006419750986099709683E7340810591057E
:1013D000A8F381E0C81AD108E108F108E8EE4E0E42
:1013E000E3E05E1E611C711CC114D104E104F10430
:1013F00029F784E491E00E94050483EC91E00E94C7
:10140000050482EF91E00E94050481E792E00E94CA
:1014100013048AE792E00E94050484E892E00E94A7
:1014200013048FE892E00E94050483E992E00E9491
:10143000050485E193E00E94050460E082E00E94DB
:10144000D90060E083E00E94D90060E08FE00E9454
:10145000D90060E08EE00E94D90060E083E10E9444
:10146000D90061E086E00E94D90061E084E00E943A
:10147000D90061E085E00E94D90061E087E00E9428
:10148000D90061E088E00E94D90061E089E00E9413
:10149000D90060E086E00E948D0060E084E00E9458
:1014A0008D0060E087E00E948D0060E088E00E948F
:1014B0008D0070E060E085E00E940A0170E060E06D
:1014C00089E00E940A0161E08CE00E94D90061E09D
:1014D00082E10E94D90060E082E10E948D008CE8E8
:1014E00093E09093010180930001809169008C7FCB
:1014F000816080936900E89A80EA93E09093030109
:101500008093020180916900837F846080936900E9
:10151000E99A8CE293E00E94050483E992E00E943C
:1015200005048EE291E00E94B40384E491E00E94FD
:10153000050488E593E00E94050482EF91E00E9493
:10154000050487E893E00E9413048FE00E9467017E
:10155000BC0190E080E04AE00E94C1038EE291E08D
:101560000E94B4038DE993E00E9413048EE00E9470
:101570006701BC0190E080E04AE00E94C1038EE276
:1015800091E00E94B40383EB93E00E9413048FE088
:101590000E9467018632924008F0CCC18DE391E051
:1015A0000E94050488EC93E00E9413048EE00E94E0
:1015B00067018632924008F0C0C18DE391E00E943D
:1015C00005048DED93E00E9413040E94FE0542E0A5
:1015D0000E9415048EE291E00E94B40383EF93E031
:1015E0000E9413040E94FE0520E030E040E751E431
:1015F0000E941C0D87FFA4C18DE391E00E940504A9
:1016000083E992E00E9405040E949E016093840495
:1016100070938504809386049093870433243394D5
:101620008BE395E00E942403892BA9F18BE395E0DD
:101630000E943A03F82E89831A820091390510918D
:101640003A050F5F1F4FB80185E395E00E94F9044A
:10165000882399F020913505309136058091390520
:1016600090913A05BE016F5F7F4F820F931F0E94DA
:10167000AD1110933A0500933905FAE0FF1202C04C
:1016800030928E046F2D88E994E00E9442028EE22F
:1016900091E00E94B40380918E04882309F483C0F2
:1016A0008AE8E82E84E0F82E8091390590913A0579
:1016B000892B71F0C0903505D09036056CE270E052
:1016C000C6010E94A2118C010C191D09892B11F46D
:1016D0000FEF1FEFA80170E060E0CE0101960E94BD
:1016E0004C0589819A81009709F42DC10E94E00C74
:1016F000F701619371937F01CE0101960E94F1047D
:101700004091390550913A05B8016F5F7F4FCE0186
:1017100001960E944C058091350590913605009701
:1017200009F417C169817A816115710509F40FC146
:1017300040913705509138052D813E81421753075E
:1017400008F405C10E94AD118D819E8190933A05E8
:10175000809339051E821D82CE0101960E94F104FC
:10176000FEE8EF16F4E0FF0609F09ECF60918A04D0
:1017700070918B0400918C0410918D041093890456
:101780000093880480E00E945E03B80181E00E941B
:101790005E0350E040E060E371E085E395E00E9485
:1017A000210510928E040E949E01009184041091E4
:1017B00085042091860430918704601B710B820B95
:1017C000930B643671058105910508F49EC0F89469
:1017D0004090800450908104609082047090830453
:1017E0000E949E016B017C0180908404909085048E
:1017F000A0908604B0908704C301B2010E94230D1B
:101800002B013C01C701B601681979098A099B09B6
:101810000E94210D9B01AC01C301B2010E94E40EA4
:1018200060937C0470937D0480937E0490937F0486
:10183000409078045090790460907A0470907B0412
:101840000E949E016B017C01C301B2010E94230D25
:101850002B013C01C701B601681979098A099B0966
:101860000E94210D9B01AC01C301B2010E94E40E54
:101870006093740470937504809376049093770456
:1018800078940E949E0160938404709385048093F1
:101890008604909387041092800410928104109221
:1018A00082041092830410927804109279041092AA
:1018B0007A0410927B048AE094E00E9413048CE086
:1018C00094E00E94130460917C0470917D048091E7
:1018D0007E0490917F0442E00E9415048CE194E024
:1018E0000E9413048EE194E00E941304609174043A
:1018F00070917504809176049091770442E00E9483
:10190000150480E391E00E9405040E9416028823DA
:1019100009F486CE0E94B10583CE9E3040F4285053
:10192000310981E001C0880F2A95EAF706CD2E50D3
:101930003109F7CF81E491E033CE81E491E03FCEED
:1019400081E491E05BCE60E070E0CB01D1CE0E94FB
:10195000531089819A8190933605809335058B8148
:101960009C8190933805809337058D819E8190935B
:101970003A05809339051A8219821C821B82EACEAD
:1019800085E395E00E94F10480E291E090933C05AC
:1019900080933B0580917204909173048B53954022
:1019A00071F4E0914E05F0914F05908180915005C2
:1019B0008095892380831092730410927204089595
:1019C0001F93FC0199278827BC01E89411911032DC
:1019D000E9F3193010F01E30C8F31B3251F01D32FC
:1019E00049F4689406C00E94070D610F711D811DA6
:1019F000911D119110531A30B0F33EF490958095DB
:101A0000709561957F4F8F4F9F4F1F910895592F6C
:101A1000482F372F262F660F771F881F991F660FB5
:101A2000771F881F991F620F731F841F951F660FF2
:101A3000771F881F991F08950E945E0D08F481E0AA
:101A40000895E89409C097FB3EF4909580957095B1
:101A500061957F4F8F4F9F4F9923A9F0F92F96E9FA
:101A6000BB279395F695879577956795B795F1116F
:101A7000F8CFFAF4BB0F11F460FF1BC06F5F7F4F0C
:101A80008F4F9F4F16C0882311F096E911C077231E
:101A900021F09EE8872F762F05C0662371F096E827
:101AA000862F70E060E02AF09A95660F771F881FF6
:101AB000DAF7880F9695879597F90895990F00089A
:101AC000550FAA0BE0E8FEEF16161706E807F90710
:101AD000C0F012161306E407F50798F0621B730BAB
:101AE000840B950B39F40A2661F0232B242B252B2C
:101AF00021F408950A2609F4A140A6958FEF811DCF
:101B0000811D08950E94950D0C94060E0E94F80DFB
:101B100038F00E94FF0D20F0952311F00C94EF0D8A
:101B20000C94F50D11240C943A0E0E94170E70F3CC
:101B3000959FC1F3950F50E0551F629FF001729F72
:101B4000BB27F00DB11D639FAA27F00DB11DAA1F81
:101B5000649F6627B00DA11D661F829F2227B00DCE
:101B6000A11D621F739FB00DA11D621F839FA00D59
:101B7000611D221F749F3327A00D611D231F849FA9
:101B8000600D211D822F762F6A2F11249F57504000
:101B90009AF0F1F088234AF0EE0FFF1FBB1F661F7B
:101BA000771F881F91505040A9F79E3F510580F044
:101BB0000C94EF0D0C943A0E5F3FE4F3983ED4F38F
:101BC000869577956795B795F795E7959F5FC1F7E8
:101BD000FE2B880F911D9695879597F9089597F993
:101BE0009F6780E870E060E008959FEF80EC0895C3
:101BF00000240A94161617061806090608950024EC
:101C00000A9412161306140605060895092E039465
:101C1000000C11F4882352F0BB0F40F4BF2B11F4D9
:101C200060FF04C06F5F7F4F8F4F9F4F089557FD38
:101C30009058440F551F59F05F3F71F04795880F3A
:101C400097FB991F61F09F3F79F0879508951216D1
:101C500013061406551FF2CF4695F1DF08C016167D
:101C600017061806991FF1CF86957105610508942E
:101C70000895E894BB2766277727CB0197F9089545
:101C80002F923F924F925F926F927F928F929F928C
:101C9000AF92BF92CF92DF92EF92FF920F931F937A
:101CA000CF93DF93CDB7DEB7CA1BDB0B0FB6F8942B
:101CB000DEBF0FBECDBF09942A88398848885F846B
:101CC0006E847D848C849B84AA84B984C884DF80DC
:101CD000EE80FD800C811B81AA81B981CE0FD11DC0
:101CE0000FB6F894DEBF0FBECDBFED01089550587A
:101CF000BB27AA270E948F0E0C94060E0E94F80D97
:101D000038F00E94FF0D20F039F49F3F19F426F4BB
:101D10000C94F50D0EF4E095E7FB0C94EF0DE92F14
:101D20000E94170E58F3BA176207730784079507C6
:101D300020F079F4A6F50C94390E0EF4E0950B2EF4
:101D4000BA2FA02D0B01B90190010C01CA01A0010D
:101D50001124FF27591B99F0593F50F4503E68F168
:101D60001A16F040A22F232F342F4427585FF3CFA9
:101D7000469537952795A795F0405395C9F77EF47A
:101D80001F16BA0B620B730B840BBAF09150A1F0C3
:101D9000FF0FBB1F661F771F881FC2F70EC0BA0F49
:101DA000621F731F841F48F4879577956795B795D1
:101DB000F7959E3F08F0B0CF9395880F08F09927CC
:101DC000EE0F9795879508950E94F80E0C94060ED5
:101DD0000E94FF0D58F00E94F80D40F029F45F3F7B
:101DE00029F00C94EF0D51110C943A0E0C94F50D52
:101DF0000E94170E68F39923B1F3552391F3951BB5
:101E0000550BBB27AA2762177307840738F09F5F1B
:101E10005F4F220F331F441FAA1FA9F335D00E2E88
:101E20003AF0E0E832D091505040E695001CCAF7F5
:101E30002BD0FE2F29D0660F771F881FBB1F2617B8
:101E400037074807AB07B0E809F0BB0B802DBF018F
:101E5000FF2793585F4F3AF09E3F510578F00C945E
:101E6000EF0D0C943A0E5F3FE4F3983ED4F3869561
:101E700077956795B795F7959F5FC9F7880F911D7F
:101E80009695879597F90895E1E0660F771F881F6B
:101E9000BB1F621773078407BA0720F0621B730B1E
:101EA000840BBA0BEE1F88F7E09508950E941F0E71
:101EB00088F09F5798F0B92F9927B751B0F0E1F00B
:101EC000660F771F881F991F1AF0BA95C9F714C0BB
:101ED000B13091F00E94390EB1E008950C94390EA2
:101EE000672F782F8827B85F39F0B93FCCF38695F4
:101EF00077956795B395D9F73EF490958095709551
:101F000061957F4F8F4F9F4F08950E945E0D08F49B
:101F10008FEF08950E945E0D880B990B0895A1E242
:101F20001A2EAA1BBB1BFD010DC0AA1FBB1FEE1F53
:101F3000FF1FA217B307E407F50720F0A21BB30B9E
:101F4000E40BF50B661F771F881F991F1A9469F71A
:101F500060957095809590959B01AC01BD01CF0176
:101F60000895EE0FFF1F0590F491E02D09940F9353
:101F70001F93CF93DF938230910510F482E090E0BD
:101F8000E0915C05F0915D0530E020E0B0E0A0E07C
:101F9000309799F42115310509F44AC0281B390BF3
:101FA00024303105D8F58A819B816115710589F14D
:101FB000FB0193838283FE0111C040815181028124
:101FC000138148175907E0F04817590799F41097FB
:101FD00061F012960C93129713961C933296CF01D0
:101FE000DF91CF911F910F91089500935C0510939D
:101FF0005D05F4CF2115310551F04217530738F034
:10200000A901DB019A01BD01DF01F801C1CFEF0198
:10201000F9CF90935D0580935C05CDCFFE01E20F73
:10202000F31F819391932250310939832883D7CFAD
:1020300020915A0530915B05232B41F42091060134
:102040003091070130935B0520935A0520910401DC
:10205000309105012115310541F42DB73EB740916E
:10206000080150910901241B350BE0915A05F091AC
:102070005B05E217F307A0F42E1B3F0B2817390767
:1020800078F0AC014E5F5F4F2417350748F04E0FD4
:102090005F1F50935B0540935A05819391939FCFA7
:1020A000F0E0E0E09CCFCF93DF930097E9F0FC01F4
:1020B000329713821282A0915C05B0915D05ED010B
:1020C00030E020E01097A1F420813181820F931F2E
:1020D00020915A0530915B052817390709F061C036
:1020E000F0935B05E0935A05DF91CF910895EA01E3
:1020F000CE17DF07E8F54A815B819E014115510546
:10210000B1F7E901FB83EA8349915991C40FD51FC7
:10211000EC17FD0761F4808191810296840F951F71
:10212000E90199838883828193819B838A83F0E08C
:10213000E0E012968D919C9113970097B9F52D913F
:102140003C911197CD010296820F931F20915A0561
:1021500030915B052817390739F6309751F5109201
:102160005D0510925C05B0935B05A0935A05BCCF4A
:10217000D383C28340815181840F951FC817D9072B
:1021800061F44E5F5F4F88819981480F591F5183D9
:1021900040838A819B81938382832115310509F0D5
:1021A000B0CFF0935D05E0935C059ECFFD01DC01AF
:1021B000C0CF13821282D7CFB0E0A0E0E2EEF0E110
:1021C0000C94420E8C01009751F4CB010E94B70F82
:1021D0008C01C801CDB7DEB7E0E10C945E0EFC01C6
:1021E000E60FF71F9C0122503109E217F30708F4AC
:1021F0009DC0D901CD91DC911197C617D70798F0F2
:10220000C530D10530F3CE0104978617970708F340
:10221000C61BD70B2297C193D1936D937C93CF01AB
:102220000E945310D6CF5B01AC1ABD0A4C018C0E34
:102230009D1EA0915C05B0915D05512C412CF12CA7
:10224000E12C109731F580915A0590915B05881526
:10225000990509F05CC04616570608F058C08091F1
:10226000040190910501009741F48DB79EB740910C
:10227000080150910901841B950BE817F90708F034
:1022800055C0F0935B05E0935A05F90171836083B3
:10229000A0CF8D919C91119712966C9012971396E6
:1022A0007C901397A815B90559F56C0142E0C40E4E
:1022B000D11CCA14DB0420F1AC014A195B09DA0114
:1022C0001296159780F06282738251834083D90100
:1022D0006D937C93E114F10471F0D7011396FC9394
:1022E000EE93129776CF22968C0F9D1FF901918362
:1022F0008083F301EFCFF0935D05E0935C0569CF38
:102300004816590608F42C017D01D3019ACFCB0160
:102310000E94B70F7C01009749F0AE01B8010E94FE
:102320009911C8010E945310870153CF10E000E0BB
:1023300050CFFB01DC0102C001900D924150504092
:10234000D8F70895FC018191861721F08823D9F7E9
:10235000992708953197CF010895FB01DC01019081
:102360000D920020E1F7089510E0C2E6D0E004C02D
:10237000FE010E94B10F2196C336D107C9F7F89428
:02238000FFCF8D
:10238200AB01AB0100005E058000000000004202CC
:10239200AC01D9018F020A02E801FC010000000031
:1023A200C802AC015B03C70224033A03AF020D0A61
:1023B200006E616E00696E66006F76660053C38DB3
:1023C200004E4F00E29594E29590E29590E295904E
:1023D200E29590E29590E29590E29590E29590E2F6
:1023E2009590E29590E29590E29590E29590E29533
:1023F20090E29590E29590E29590E29590E2959028
:10240200E29590E29590E29590E29590E29590E2C5
:102412009590E29590E29590E29590E29590E29502
:1024220090E29590E29590E29590E29590E29590F7
:10243200E29590E29590E29590E29590E29590E295
:10244200959700E29591202020202020524F424F64
:102452005420325744202D20494E494349414E448D
:102462004F2053495354454D412020202020E295CE
:102472009100E2959AE29590E29590E29590E2952C
:1024820090E29590E29590E29590E29590E2959097
:10249200E29590E29590E29590E29590E29590E235
:1024A2009590E29590E29590E29590E29590E29572
:1024B20090E29590E29590E29590E29590E2959067
:1024C200E29590E29590E29590E29590E29590E205
:1024D2009590E29590E29590E29590E29590E29542
:1024E20090E29590E29590E29590E29590E2959D2A
:1024F200004E6F6D6272653A200032574420526F6F
:10250200626F74005665727369C3B36E3A2000310C
:102512002E3000E29590E29590E29590E29590E25D
:102522009590E29590E29590E29590E29590E295F1
:1025320090E29590E29590E29590E29590E29590E6
:10254200E29590E29590E29590E29590E29590E284
:102552009590E29590E29590E29590E29590E295C1
:1025620090E29590E29590E29590E29590E29590B6
:10257200E29590E29590E29590E29590E29590E254
:102582009590E29590E29590E29590E29590E29591
:1025920090E2959000496E696369616C697A616E37
:1025A200646F20726F626F742E2E2E005BE29C931A
:1025B2005D2050696E657320492F4F20696E6963F3
:1025C20069616C697A61646F7320636F72726563AB
:1025D20074616D656E746500E29591202020202063
:1025E2002020202045535441444F2044454C205242
:1025F2004F424F54203257442020202020202020B8
:10260200202020E295910053656E736F722049522B
:1026120020497A7175696572646F3A200053656E5C
:10262200736F72204952204465726563686F3A2065
:10263200202000536F627265206CC3AD6E6561200D
:1026420028497A71293A2000536F627265206CC35F
:10265200AD6E65612028446572293A200044697391
:1026620074616E6369612028636D293A20202020FD
:102672002020004F627374C3A163756C6F20636581
:102682007263616E6F3A202020003E00765F6465BF
:1026920072656368615F7261645F73002C00765FCC
:1026A200697A717569657264615F7261645F7300F2
:00000001FF
